:100000000EC040C01CC0C9C0CAC019C018C017C0AB
:1000100016C015C014C013C012C011C010C01124E6
:100020001FBECFE5D2E0DEBFCDBF20E0A0E6B0E04E
:1000300001C01D92A636B207E1F7B3D0E3C0E0CF0E
:100040008091600090916100A0916200B091630086
:10005000AA27BB2781159F4FA105B10591F4809177
:10006000600090916100A0916200B0916300A5349E
:1000700021F488B392E0892788BB88B391E089276F
:1000800088BB08951F920F920FB60F9211242F93E1
:100090003F934F935F936F937F938F939F93AF9310
:1000A000BF93EF93FF9382B798B79270209164004B
:1000B000309165002032310591F52EE3280F23326F
:1000C00030F591110CC010926000109261001092F6
:1000D000620010926300109265001092640012BEDC
:1000E00088B7826088BF8AB780648ABFFF91EF912A
:1000F000BF91AF919F918F917F916F915F914F9140
:100100003F912F910F900FBE0F901F9018958F5910
:10011000833228F79111E3CF81E092DFE0CF8D3277
:1001200010F4992339F080E290E090936500809379
:100130006400D5CF8B3118F18091640090916500F7
:100140004091600050916100609162007091630085
:1001500021E030E002C0220F331F8A95E2F7C90187
:10016000330FAA0BBB0B842B952BA62BB72B80939D
:10017000600090936100A0936200B093630080914F
:100180006400909165004F9711F480E059DF8091F1
:100190006400909165000196C8CFC49A1895C498E0
:1001A0001895F894B89AC098B99AC198BB9AC39810
:1001B000BC9AC498BA98C29883EF8ABD83E083BF83
:1001C00080E78CBD87EF80BF89B7846489BF78944E
:1001D00081E09FEF9C0197FF04C022273327281B53
:1001E000390B29BD322F309538BD2EBD3BBDE3EC18
:1001F000F9E03197F1F700C0000001968F3F9105BB
:0802000049F7E6CFF894FFCFA7
:00000001FF
